:0200000280007C
:1000000048250720E5040800E1040800E104080091
:10001000E1040800E1040800E10408000000000019
:10002000000000000000000000000000D9050800EA
:10003000E104080000000000110608004D06080059
:10004000E1040800E1040800E1040800E1040800FC
:10005000E1040800E1040800E1040800E1040800EC
:10006000E1040800E1040800000000003904080071
:100070004D04080061040800750408000000000039
:1000800000000000E1040800E1040800E1040800A9
:10009000E1040800E1040800E1040800E1040800AC
:1000A000E104080000000000E1040800E104080089
:1000B000E1040800E1040800E1040800E10408008C
:1000C000E1040800E1040800E1040800E10408007C
:1000D000E1040800E1040800E1040800E10408006C
:1000E000E1040800E1040800E1040800E10408005C
:1000F000E104080010B5054C237833B9044B13B163
:100100000448AFF300800123237010BD30040720A2
:1001100000000000AC09080008B5064B1BB10648FA
:100120000649AFF300800648036813B1054B03B1DD
:10013000984708BD00000000AC09080034040720FF
:10014000AC0908000000000010B54FF40042164B47
:100150005A600B20154CA0470C20A0470D20A0474B
:100160000E20A0473B204FF06051114CA047552076
:100170004FF06051A04756204FF06051A0476820D3
:100180000C49A0475C200C49A0470C484FF4407133
:100190000B4A0C4B98472B204FF00061A0472A20B8
:1001A0004FF00061A04710BD501A0E4089040800AE
:1001B0006D0208007900002801000028000E0E40A2
:1001C00001000008410308004264B1F1805F16D0CD
:1001D00004D8C1B1B1F1006F0AD013E0B1F1405FB2
:1001E00011D0B1F1605F0ED0B1F1205F0AD170473C
:1001F000036F016F0B4023EA0203036702E0036F02
:100200001343036742607047416412F0010F14BF4B
:100210004166016612F00A0F14BF0162416212F0DA
:10022000020F02D0C0F8801004E012F0080F18BFCF
:10023000C0F8841041610160704700BF10B4416490
:10024000019C0CB1416600E001660BB1016500E064
:1002500041650AB1016300E04163016101605DF83D
:10026000044B7047C06C7047806C704770B582B0AB
:100270000D46440904F5001404F20774660201F007
:10028000F044B4F1205F30D006D8B4F1006F0AD04A
:10029000B4F1805F18D049E0B4F1405F30D0B4F1E0
:1002A000605F2DD042E000F01F0001248440304602
:1002B0004FF0006122461F4B984715F0010F14BF05
:1002C00074663466012032E000F01F00012484408F
:1002D00030464FF080512246164B984715F0010FDB
:1002E00014BF74663466012021E000F01F01012470
:1002F000304604FA01F12A460F4B9847204616E093
:1003000000F01F01012405F0605205EA0403009388
:10031000304604FA01F1B2F1605F14BF00220122FD
:10032000C5F38003054DA847204600E0002002B039
:1003300070BD00BFC9010800090208003D020800A5
:10034000F0B583B007460E46154602F0F044B4F10E
:10035000205F26D006D8B4F1006F0AD0B4F1805FD8
:1003600013D034E0B4F1405F1FD0B4F1605F1CD013
:100370002DE04FF000613246164B984715F0010F03
:1003800014BF7E663E66012022E04FF08051324667
:10039000104B984715F0010F14BF7E663E66012092
:1003A00016E00D4B9847012012E005F0605205F071
:1003B0000103009338463146B2F1605F14BF00225A
:1003C0000122C5F38003054CA047012000E0002076
:1003D00003B0F0BDC9010800090208003D02080091
:1003E0002DE9F04104460E46104B9847054620463D
:1003F0000F4B9847054017D00E4F07F10C046C3790
:1004000054F80C3CB3420AD154F8081C294206D0D7
:1004100023683046984754F8083C25EA0305BC4257
:1004200002D01034002DEBD1BDE8F0816502080048
:10043000690208004C04072008B502480B21024B52
:10044000984708BD000E0E40E103080008B50248B9
:100450000C21024B984708BD00100E40E103080034
:1004600008B502480D21024B984708BD00120E4006
:10047000E103080008B502480E21024B984708BD69
:1004800000140E40E10308002C2820D81F280DD8A6
:10049000124B9A69012383401A40934219D00123D9
:1004A00003FA00F00D4B1861002070470B4BD3F896
:1004B00008212038012383401A4093420BD00123A6
:1004C00003FA00F0054BC3F800010020704701203B
:1004D0007047002070470020704700BF00060E40A4
:1004E000FEE700BF10B51E4B1E4A9A4203D01E4BBA
:1004F0001B4A9A4204D31D4B1D4A9A420FD31AE05D
:100500001C4B1D4CE41A24F003040434002314484B
:1005100014495A581A500433A342FAD1EBE7174B47
:100520001749C91A21F003011A1D1144002243F88A
:10053000042F8B42FBD1134A22F0604323F07F0348
:1005400011498B6002F16042B2F5801F03D28A68C4
:1005500042F000528A600D4B98470D4B9847FEE7DA
:1005600000000720AC0908003004072044050720DC
:100570003004072004000720330407202C04072040
:100580003F0507200000080000ED00E039080800E2
:100590002908080043685A684A6042688A605A68B5
:1005A00091605960416008610368013303607047DE
:1005B000436882689A60836842685A6003695A682F
:1005C000824204BF82685A60002202611A68013ABE
:1005D0001A601868704700BF064B19680868B0E8D1
:1005E000F00F80F309884FF0000080F311884EF07F
:1005F0000D0E704730050720EFF311804FF0A0017A
:1006000081F311887047002080F31188704700BF84
:10061000EFF309800C4B1A6820E9F00F10602DE908
:1006200008404FF0A00080F3118800F0B5F84FF0BB
:10063000000080F31188BDE8084019680868B0E838
:10064000F00F80F3098870473005072008B54FF098
:100650008052054B1A60054B9847054B9847002080
:10066000044B984708BD00BF04ED00E0F905080001
:1006700079060800090608002DE9F0413A4B1B688D
:10068000002B6BD1394B1A6801321A601B6803BB0F
:10069000374B1B681B681BB1364B984700BFFDE703
:1006A000334B1968344A106818601160334A116876
:1006B000013111601B681B6823B94FF0FF32304BCA
:1006C0001A6006E02A4B1B68DB68DB685A682C4B13
:1006D0001A60264B1A682A4B1B689A4242D3244B55
:1006E0001B681B684BB1224B1B68DB68DC686368C6
:1006F0001E4A1268934213D90EE04FF0FF32204B8E
:100700001A60BDE8F0811A4B1B68DB68DC6863681F
:10071000164A1268934207D9194A1360BDE8F0815E
:10072000184E194FDFF86C80251D2846B047A36A84
:1007300013B104F11800B047E36A3A68934288BFE6
:100740003B6003EB830008EB800029460F4B984782
:10075000074B1B681B68002BD5D1CEE70C4B1A68E2
:1007600001321A60BDE8F0812C050720380507200A
:10077000C0040720F90508003C05072034050720C0
:1007800000000720B1050800C404072095050800F3
:10079000BC040720C804072008B51D4B1B685BB9C3
:1007A0001C4B1B6803EB83039B001B4AD358CBB93C
:1007B000184B1B6853B905E00122184B1A6008BD9D
:1007C0001A682AB9164B984700BFFDE7114B12492A
:1007D0001A68013A1A601A6802EB820251F8222064
:1007E000002AEDD00B4B1B6803EB83030A4A02EB94
:1007F00083035A6852685A6003F108018A4204BFB1
:1008000052685A605B68DA68064B1A6008BD00BF20
:100810002C050720C4040720C80407204005072032
:10082000F90508003005072008B5024B984700205D
:1008300008BD00BF4901080070B50F4E0F4D761B73
:10084000B61007D0043D0024013455F8043F984702
:10085000A642F9D10A4E0B4D00F096F8761BB61061
:1008600008D0043D0024013455F8043F9847A642BF
:10087000F9D170BD70BD00BF94090800940908004B
:100880009C09080094090800024B13B1024800F0CB
:1008900005B8704700000000A908080001460020C4
:1008A0000246034600F018B838B5094D094C641BE0
:1008B000A41018BF05EB840505D0013C55F8043D94
:1008C0009847002CF9D1BDE8384000F067B800BF68
:1008D000A8090800AC090800F0B5274C85B02668C7
:1008E0000746D6F84841002C40D065681F2D1EDD14
:1008F000224818B94FF0FF3005B0F0BD4FF4C87072
:10090000039102920193AFF3008003990446029A87
:10091000019B0028EED0D6F8485100202560606089
:100920000546C6F84841C4F88801C4F88C013FB9AF
:100930006B1C00200235636044F8251005B0F0BD43
:100940000126AE4004EB8500C0F88820D4F8882149
:10095000022F42EA0602C4F88821C0F80831E7D124
:10096000D4F88C311E43C4F88C61E1E706F5A67417
:10097000C6F84841B9E700BF84090800000000003C
:100980004300000008000720F8B500BFF8BC08BC11
:100990009E4670478908080019010800F8B500BF95
:0C09A000F8BC08BC9E467047F50008003B
:1009AC00FFFFFFFF0000000000000000F402072022
:1009BC005C030720C40307200000000000000000B7
:1009CC00000000000000000000000000000000001B
:1009DC00000000000000000000000000800908007A
:1009EC0000000000000000000000000000000000FB
:1009FC0000000000000000000000000000000000EB
:100A0C0000000000000000000000000000000000DA
:100A1C0000000000000000000000000000000000CA
:100A2C0000000000000000000000000000000000BA
:100A3C0000000000000000000000000000000000AA
:100A4C00000000000000000000000000000000009A
:100A5C0001000000000000000E33CDAB34126DE637
:100A6C00ECDE05000B0000000000000000000000A0
:100A7C00000000000000000000000000000000006A
:100A8C00000000000000000000000000000000005A
:100A9C00000000000000000000000000000000004A
:100AAC00000000000000000000000000000000003A
:04000003800004E590
:00000001FF
