S0150000457855707067696674323031342E73726563AC
S21408000078260720610708005D0708005D070800D6
S2140800105D0708005D0708005D070800000000008F
S2140800200000000000000000000000007109080041
S2140800305D07080000000000A9090800E509080097
S2140800405D0708005D0708005D0708005D070800F3
S2140800505D0708005D0708005D0708005D070800E3
S2140800605D0708005D07080000000000CD050800D1
S214080070E1050800F505080009060800000000006C
S214080080000000005D0708005D0708005D0708001F
S2140800905D0708005D0708005D0708005D070800A3
S2140800A05D070800000000005D0708005D070800FF
S2140800B05D0708005D0708005D0708005D07080083
S2140800C05D0708005D0708005D0708005D07080073
S2140800D05D0708005D0708005D0708005D07080063
S2140800E05D0708005D0708005D0708005D07080053
S2140800F05D07080010B5054C237833B9044B13B1D7
S2140801000448AFF300800123237010BD6005072064
S21408011000000000880D080008B5064B1BB106480D
S2140801200649AFF300800648036813B1054B03B1D0
S214080130984708BD00000000880D080064050720E1
S214080140880D08000000000038B525200E4B98479B
S2140801500E4C20460E490F4A00230F4DA84720464E
S21408016000210A460B460D4DA847204600210C4B99
S2140801709847204600210A460A4B984720460A21F7
S214080180094B984738BD00BF0507080000000C401B
S214080190007A030A00BD0105C1020800150308001D
S2140801A0F5020800050308003D03080038B50748AF
S2140801B0074B9847054D074C2846A04710F0807F08
S2140801C0FAD002480A21044B984738BD00000C4074
S2140801D035030800590308004903080010B50E48FF
S2140801E00E4B984700203E210D4B98470D4CA047D4
S2140801F00028FCD00C4B98470C4A0D4B9A620D4CC5
S214080200A0470028FCD010200B4B98470B4B98476C
S2140802100148024B984710BD00BD0105A500072000
S21408022081060800D5060800E5060800013F0D20EF
S21408023000060E40F50608001D060800110808000E
S21408024010B54FF40042174B5A600B20164CA047C7
S2140802500C20A0470D20A0470E20A0473B204FF0BB
S2140802606051124CA04755204FF06051A0475620C9
S2140802704FF06051A04768200D49A0475C200D4903
S214080280A0470D484FF440714FF000620B4B98475B
S2140802902B204FF00061A0472A204FF00061A047AE
S2140802A010BD00BF501A0E400507080001040800DC
S2140802B07900002801000028000E0E40D50408002A
S2140802C030B4012404600024446040F20225C0F8DB
S2140802D02051C0F80441C0F8144145682B43520029
S2140802E0B1FBF2F14D1E2D02ADB22B434360204602
S2140802F030BC7047436823F01003436043681943D3
S2140803004160704743681943D201D3B2194341602C
S214080310704700BF10B444682243090601F07064B1
S21408032022431B0703F040531A4342605DF8044B10
S214080330704700BF02230360704700BF012303FA1B
S21408034001F10161704700BF0F299ABF143150F8B8
S21408035021000020704700BF006B70474264B1F16F
S214080360805F16D004D8C1B1B1F1006F0AD013E08F
S214080370B1F1405F11D0B1F1605F0ED0B1F1205FEE
S2140803800AD17047036F016F0B4023EA0203036725
S21408039002E0036F1343036742607047416412F03C
S2140803A0010F14BF4166016612F00A0F14BF0162FE
S2140803B0416212F0020F02D0C0F8801004E012F07A
S2140803C0080F18BFC0F8841041610160704700BF6D
S2140803D010B44164019C0CB1416600E001660BB1A3
S2140803E0016500E041650AB1016300E0416301610F
S2140803F001605DF8044B7047C06C7047806C7047AE
S21408040070B582B00D46440904F5001404F207746A
S214080410660201F0F044B4F1205F30D006D8B4F19B
S214080420006F0AD0B4F1805F18D049E0B4F1405F9D
S21408043030D0B4F1605F2DD042E000F01F000124F8
S214080440844030464FF0006122461F4B984715F00F
S214080450010F14BF74663466012032E000F01F00F6
S2140804600124844030464FF080512246164B984768
S21408047015F0010F14BF74663466012021E000F001
S2140804801F010124304604FA01F12A460F4B98470B
S214080490204616E000F01F01012405F0605205EA28
S2140804A004030093304604FA01F1B2F1605F14BF0A
S2140804B000220122C5F38003054DA847204600E028
S2140804C0002002B070BD00BF5D0308009D03080051
S2140804D0D1030800F0B583B007460E46154602F06D
S2140804E0F044B4F1205F26D006D8B4F1006F0AD0E5
S2140804F0B4F1805F13D034E0B4F1405F1FD0B4F19C
S214080500605F1CD02DE04FF000613246164B9847CE
S21408051015F0010F14BF7E663E66012022E04FF0FC
S21408052080513246104B984715F0010F14BF7E666F
S2140805303E66012016E00D4B9847012012E005F0B4
S214080540605205F00103009338463146B2F1605F09
S21408055014BF00220122C5F38003054CA0470120E2
S21408056000E0002003B0F0BD5D0308009D0308000E
S214080570D10308002DE9F04104460E46104B984773
S214080580054620460F4B9847054017D00E4F07F1F3
S2140805900C046C3754F80C3CB3420AD154F8081CC7
S2140805A0294206D023683046984754F8083C25EA7E
S2140805B00305BC4202D01034002DEBD1BDE8F08113
S2140805C0F9030800FD0308007C05072008B5024863
S2140805D00B21024B984708BD000E0E407505080013
S2140805E008B502480C21024B984708BD00100E407B
S2140805F07505080008B502480D21024B984708BD46
S21408060000120E407505080008B502480E21024B78
S214080610984708BD00140E4075050800174B1A6B5E
S21408062022F07002104318639B6E13F0080F09D16E
S2140806304FF40063114901E0013B19D08A6E12F0AD
S214080640080FF9D00D4B1A6B22F0030242F0020293
S2140806501A63986E10F008000CD14FF4006307492F
S21408066001E0013B08D08A6E12F0080FF9D07047F7
S21408067001207047002070470120704700060E4092
S21408068038B111490B6A114A1A40114B13430B62D1
S21408069070470D4A136A23F45C1323F0030343F4EC
S2140806A05C1343F00103090289B20B431362936E8D
S2140806B013F0010FFBD0044A136A43F09B7343F40C
S2140806C080331362704700BF00060E40FCFFC8FE6A
S2140806D002003701024B986E00F48030704700BF66
S2140806E000060E404FF00052014B9A62704700BF5A
S2140806F000060E40024B986E00F00200704700BFDE
S21408070000060E402C2820D81F280DD8124B9A69B0
S214080710012383401A40934219D0012303FA00F0BC
S2140807200D4B1861002070470B4BD3F80821203872
S214080730012383401A4093420BD0012303FA00F0AA
S214080740054BC3F8000100207047012070470020C1
S21408075070470020704700BF00060E40FEE700BF47
S21408076010B51E4B1E4A9A4203D01E4B1B4A9A428D
S21408077004D31D4B1D4A9A420FD31AE01C4B1D4C3E
S214080780E41A24F0030404340023144814495A587D
S2140807901A500433A342FAD1EBE7174B1749C91A84
S2140807A021F003011A1D1144002243F8042F8B423E
S2140807B0FBD1134A22F0604323F07F0311498B6074
S2140807C002F16042B2F5801F03D28A6842F00052F6
S2140807D08A600D4B98470D4B9847FEE700000720A8
S2140807E0880D0800600507207806072060050720A2
S2140807F004000720630507205C050720730607200A
S2140808000000080000ED00E0150C0800C10B080009
S2140808103E4B1B6B03F00303032B5FD8DFE803F0A4
S214080820020E2B2B3A4B5B6913F0800F14BF4FF464
S21408083000424FF4FA42374B1A604FE0334B1B6ABC
S21408084013F0807F03D0344A324B1A6046E0334AAE
S214080850304B1A602D4B1B6A03F07003102B02D026
S214080860202B04D03AE02E4A2A4B1A6036E02A4A51
S214080870284B1A6032E0254B1B6A13F0807F03D0A2
S214080880254A244B1A6012E0244A224B1A601F4B52
S2140808901B6A03F07003102B02D0202B04D006E04E
S2140808A01F4A1C4B1A6002E01B4A1A4B1A60174B69
S2140808B01B6B03F00303022B0DD1144B986A996A3D
S2140808C0144BC0F30A401A6800FB0222C9B2B2FBF6
S2140808D0F1F21A6002E0134A0E4B1A600B4B1B6BC0
S2140808E003F07003702B07D10A4B1A680E49A1FB58
S2140808F0020252081A607047044B196B054BC1F385
S21408090002111A68CA401A60704700BF00060E40F7
S214080910101A0E402C010720001BB70000093D00E6
S21408092000127A00001C4E0EABAAAAAA43685A68A0
S2140809304A6042688A605A689160596041600861F6
S2140809400368013303607047436882689A60836867
S21408095042685A6003695A68824204BF82685A60CD
S214080960002202611A68013A1A601868704700BFC8
S214080970064B19680868B0E8F00F80F309884FF04E
S214080980000080F311884EF00D0E704760060720B1
S214080990EFF311804FF0A00181F311887047002013
S2140809A080F31188704700BFEFF309800C4B1A6874
S2140809B020E9F00F10602DE908404FF0A00080F302
S2140809C0118800F0B5F84FF0000080F31188BDE8F4
S2140809D0084019680868B0E8F00F80F3098870477F
S2140809E06006072008B54FF08052054B1A60054B85
S2140809F09847054B98470020044B984708BD00BF0A
S214080A0004ED00E091090800110A0800A109080091
S214080A102DE9F0413A4B1B68002B6BD1394B1A680D
S214080A2001321A601B6803BB374B1B681B681BB177
S214080A30364B984700BFFDE7334B1968344A1068B1
S214080A4018601160334A1168013111601B681B6811
S214080A5023B94FF0FF32304B1A6006E02A4B1B686A
S214080A60DB68DB685A682C4B1A60264B1A682A4BD8
S214080A701B689A4242D3244B1B681B684BB1224B17
S214080A801B68DB68DC6863681E4A1268934213D9E1
S214080A900EE04FF0FF32204B1A60BDE8F0811A4B8B
S214080AA01B68DB68DC686368164A1268934207D9D5
S214080AB0194A1360BDE8F081184E194FDFF86C80AC
S214080AC0251D2846B047A36A13B104F11800B0479D
S214080AD0E36A3A68934288BF3B6003EB830008EBFF
S214080AE0800029460F4B9847074B1B681B68002B4E
S214080AF0D5D1CEE70C4B1A6801321A60BDE8F081F2
S214080B005C06072068060720F005072091090800FC
S214080B106C060720640607203001072049090800EC
S214080B20F40507202D090800EC050720F80507201E
S214080B3008B51D4B1B685BB91C4B1B6803EB83038E
S214080B409B001B4AD358CBB9184B1B6853B905E012
S214080B500122184B1A6008BD1A682AB9164B98471E
S214080B6000BFFDE7114B12491A68013A1A601A6865
S214080B7002EB820251F82220002AEDD00B4B1B68AC
S214080B8003EB83030A4A02EB83035A6852685A60E7
S214080B9003F108018A4204BF52685A605B68DA6843
S214080BA0064B1A6008BD00BF5C060720F405072040
S214080BB0F805072070060720910908006006072038
S214080BC038B50D4B98470D4B98470B200C4CA04753
S214080BD00C20A0470D20A0470E20A047094B984799
S214080BE0094B4FF480421A61C3F8A0205A63074D98
S214080BF0074CA8472060FCE7DD0108004102080012
S214080C00050708004901080000100E40AD0108005D
S214080C107406072070B50F4E0F4D761BB61007D01A
S214080C20043D0024013455F8043F9847A642F9D1FC
S214080C300A4E0B4D00F096F8761BB61008D0043D09
S214080C400024013455F8043F9847A642F9D170BDF0
S214080C5070BD00BF700D0800700D0800780D080004
S214080C60700D0800024B13B1024800F005B8704733
S214080C7000000000850C08000146002002460346D6
S214080C8000F018B838B5094D094C641BA41018BFF5
S214080C9005EB840505D0013C55F8043D9847002C23
S214080CA0F9D1BDE8384000F067B800BF840D0800E9
S214080CB0880D0800F0B5274C85B026680746D6F894
S214080CC04841002C40D065681F2D1EDD224818B903
S214080CD04FF0FF3005B0F0BD4FF4C8700391029294
S214080CE00193AFF3008003990446029A019B0028FB
S214080CF0EED0D6F848510020256060600546C6F854
S214080D004841C4F88801C4F88C013FB96B1C002020
S214080D100235636044F8251005B0F0BD0126AE40E4
S214080D2004EB8500C0F88820D4F88821022F42EA10
S214080D300602C4F88821C0F80831E7D1D4F88C3107
S214080D401E43C4F88C61E1E706F5A674C6F8484168
S214080D50B9E700BF600D080000000000430000006F
S214080D6038010720F8B500BFF8BC08BC9E46704797
S214080D70650C080019010800F8B500BFF8BC08BCE7
S20C080D809E467047F5000800C6
S214080D884FF48063204A136002F5007213601F4B05
S214080D981B6A13F0807F07D11D4A1C4B1A621A4635
S214080DA8936E13F0010FFBD01A4A184B1A621A46AC
S214080DB8936E13F4803FFBD0144B1A6B22F0030291
S214080DC842F001021A631A46936E13F0080FFBD016
S214080DD8114A0E4B9A621A46936E13F0020FFBD00E
S214080DE811220A4B1A631A46936E13F0080FFBD0A3
S214080DF81222064B1A631A46936E13F0080FFBD096
S214080E08064A074B1A607047000A0E4000060E404E
S214080E180908370009083701013F0D2000BD0105FC
S214080E282C0107201B4B984206D800231A4A136041
S214080E3802F5007213607047184B984207D84FF4AB
S214080E488073154A136002F5007213607047144BD6
S214080E58984207D84FF400730F4A136002F50072D9
S214080E68136070470F4B984207D84FF440730A4AE6
S214080E78136002F50072136070470B4B984294BFD4
S214080E884FF480634FF4A063034A136002F50072B8
S214080E9813607047BFEA2101000A0E407FF0FA0285
S214080EA8FF8FD003FFB3C4047F4A5D0500093D00E1
S214080EB8FFFFFFFF000000000000000024040720D2
S214080EC88C040720F4040720000000000000000037
S214080ED800000000000000000000000000000000FD
S214080EE80000000000000000000000005C0D08007C
S214080EF800000000000000000000000000000000DD
S214080F0800000000000000000000000000000000CC
S214080F1800000000000000000000000000000000BC
S214080F2800000000000000000000000000000000AC
S214080F38000000000000000000000000000000009C
S214080F48000000000000000000000000000000008C
S214080F58000000000000000000000000000000007C
S214080F6801000000000000000E33CDAB34126DE619
S214080F78ECDE05000B000000000000000000000082
S214080F88000000000000000000000000000000004C
S214080F98000000000000000000000000000000003C
S214080FA8000000000000000000000000000000002C
S214080FB8000000000000000000000000000000001C
S8040807618B
